{
  "_format": "hh-sol-artifact-1",
  "contractName": "TodoList",
  "sourceName": "contracts/Todo.sol",
  "abi": [
    {
      "inputs": [],
      "stateMutability": "nonpayable",
      "type": "constructor"
    },
    {
      "anonymous": false,
      "inputs": [
        {
          "indexed": false,
          "internalType": "string",
          "name": "title",
          "type": "string"
        },
        {
          "indexed": false,
          "internalType": "enum TodoList.Status",
          "name": "status",
          "type": "uint8"
        }
      ],
      "name": "TodoCreated",
      "type": "event"
    },
    {
      "anonymous": false,
      "inputs": [
        {
          "indexed": false,
          "internalType": "string",
          "name": "title",
          "type": "string"
        },
        {
          "indexed": false,
          "internalType": "enum TodoList.Status",
          "name": "status",
          "type": "uint8"
        }
      ],
      "name": "TodoUpdated",
      "type": "event"
    },
    {
      "inputs": [
        {
          "internalType": "string",
          "name": "_title",
          "type": "string"
        },
        {
          "internalType": "string",
          "name": "_desc",
          "type": "string"
        }
      ],
      "name": "createTodo",
      "outputs": [
        {
          "internalType": "bool",
          "name": "",
          "type": "bool"
        }
      ],
      "stateMutability": "nonpayable",
      "type": "function"
    },
    {
      "inputs": [
        {
          "internalType": "uint8",
          "name": "_index",
          "type": "uint8"
        }
      ],
      "name": "deleteTodo",
      "outputs": [],
      "stateMutability": "nonpayable",
      "type": "function"
    },
    {
      "inputs": [],
      "name": "getAllTodo",
      "outputs": [
        {
          "components": [
            {
              "internalType": "string",
              "name": "title",
              "type": "string"
            },
            {
              "internalType": "string",
              "name": "description",
              "type": "string"
            },
            {
              "internalType": "enum TodoList.Status",
              "name": "status",
              "type": "uint8"
            }
          ],
          "internalType": "struct TodoList.Todo[]",
          "name": "",
          "type": "tuple[]"
        }
      ],
      "stateMutability": "view",
      "type": "function"
    },
    {
      "inputs": [
        {
          "internalType": "uint8",
          "name": "_index",
          "type": "uint8"
        }
      ],
      "name": "getTodos",
      "outputs": [
        {
          "internalType": "string",
          "name": "",
          "type": "string"
        },
        {
          "internalType": "string",
          "name": "",
          "type": "string"
        },
        {
          "internalType": "enum TodoList.Status",
          "name": "",
          "type": "uint8"
        }
      ],
      "stateMutability": "view",
      "type": "function"
    },
    {
      "inputs": [],
      "name": "owner",
      "outputs": [
        {
          "internalType": "address",
          "name": "",
          "type": "address"
        }
      ],
      "stateMutability": "view",
      "type": "function"
    },
    {
      "inputs": [
        {
          "internalType": "uint8",
          "name": "_index",
          "type": "uint8"
        }
      ],
      "name": "todoCompleted",
      "outputs": [
        {
          "internalType": "bool",
          "name": "",
          "type": "bool"
        }
      ],
      "stateMutability": "nonpayable",
      "type": "function"
    },
    {
      "inputs": [
        {
          "internalType": "uint256",
          "name": "",
          "type": "uint256"
        }
      ],
      "name": "todos",
      "outputs": [
        {
          "internalType": "string",
          "name": "title",
          "type": "string"
        },
        {
          "internalType": "string",
          "name": "description",
          "type": "string"
        },
        {
          "internalType": "enum TodoList.Status",
          "name": "status",
          "type": "uint8"
        }
      ],
      "stateMutability": "view",
      "type": "function"
    },
    {
      "inputs": [
        {
          "internalType": "uint8",
          "name": "_index",
          "type": "uint8"
        },
        {
          "internalType": "string",
          "name": "_title",
          "type": "string"
        },
        {
          "internalType": "string",
          "name": "_desc",
          "type": "string"
        }
      ],
      "name": "updateTodo",
      "outputs": [],
      "stateMutability": "nonpayable",
      "type": "function"
    }
  ],
  "bytecode": "0x6080604052348015600f57600080fd5b50336000806101000a81548173ffffffffffffffffffffffffffffffffffffffff021916908373ffffffffffffffffffffffffffffffffffffffff160217905550611df68061005f6000396000f3fe608060405234801561001057600080fd5b50600436106100885760003560e01c80638da5cb5b1161005b5780638da5cb5b1461013b578063982abb8914610159578063bc8bc2b414610177578063e9505164146101a957610088565b8063233881461461008d5780633380b99f146100a95780633a0f1664146100d95780635607da511461010b575b600080fd5b6100a760048036038101906100a29190611175565b6101c5565b005b6100c360048036038101906100be91906112e8565b61042e565b6040516100d0919061137b565b60405180910390f35b6100f360048036038101906100ee9190611175565b610648565b6040516101029392919061148c565b60405180910390f35b61012560048036038101906101209190611175565b610945565b604051610132919061137b565b60405180910390f35b610143610aef565b6040516101509190611512565b60405180910390f35b610161610b13565b60405161016e919061169f565b60405180910390f35b610191600480360381019061018c91906116f7565b610d40565b6040516101a09392919061148c565b60405180910390f35b6101c360048036038101906101be9190611724565b610e97565b005b60008054906101000a900473ffffffffffffffffffffffffffffffffffffffff1673ffffffffffffffffffffffffffffffffffffffff163373ffffffffffffffffffffffffffffffffffffffff1614610253576040517f08c379a000000000000000000000000000000000000000000000000000000000815260040161024a906117fb565b60405180910390fd5b600073ffffffffffffffffffffffffffffffffffffffff163373ffffffffffffffffffffffffffffffffffffffff16036102c2576040517f08c379a00000000000000000000000000000000000000000000000000000000081526004016102b990611867565b60405180910390fd5b6001805490508160ff161061030c576040517f08c379a0000000000000000000000000000000000000000000000000000000008152600401610303906118d3565b60405180910390fd5b600180808054905061031e9190611922565b8154811061032f5761032e611956565b5b906000526020600020906003020160018260ff168154811061035457610353611956565b5b9060005260206000209060030201600082018160000190816103769190611ba7565b506001820181600101908161038b9190611ba7565b506002820160009054906101000a900460ff168160020160006101000a81548160ff021916908360038111156103c4576103c3611415565b5b021790555090505060018054806103de576103dd611c8f565b5b6001900381819060005260206000209060030201600080820160006104039190611098565b6001820160006104139190611098565b6002820160006101000a81549060ff02191690555050905550565b60008060009054906101000a900473ffffffffffffffffffffffffffffffffffffffff1673ffffffffffffffffffffffffffffffffffffffff163373ffffffffffffffffffffffffffffffffffffffff16146104bf576040517f08c379a00000000000000000000000000000000000000000000000000000000081526004016104b6906117fb565b60405180910390fd5b600073ffffffffffffffffffffffffffffffffffffffff163373ffffffffffffffffffffffffffffffffffffffff160361052e576040517f08c379a000000000000000000000000000000000000000000000000000000000815260040161052590611867565b60405180910390fd5b6105366110d8565b83816000018190525082816020018190525060018160400190600381111561056157610560611415565b5b9081600381111561057557610574611415565b5b81525050600181908060018154018082558091505060019003906000526020600020906003020160009091909190915060008201518160000190816105ba9190611cbe565b5060208201518160010190816105d09190611cbe565b5060408201518160020160006101000a81548160ff021916908360038111156105fc576105fb611415565b5b021790555050507fb24501745f85fff88cc582df1223bf671a1234ab872711ffaa7eb8bd56fe311e846001604051610635929190611d90565b60405180910390a1600191505092915050565b60608060008060009054906101000a900473ffffffffffffffffffffffffffffffffffffffff1673ffffffffffffffffffffffffffffffffffffffff163373ffffffffffffffffffffffffffffffffffffffff16146106dc576040517f08c379a00000000000000000000000000000000000000000000000000000000081526004016106d3906117fb565b60405180910390fd5b600073ffffffffffffffffffffffffffffffffffffffff163373ffffffffffffffffffffffffffffffffffffffff160361074b576040517f08c379a000000000000000000000000000000000000000000000000000000000815260040161074290611867565b60405180910390fd5b6001805490508460ff1610610795576040517f08c379a000000000000000000000000000000000000000000000000000000000815260040161078c906118d3565b60405180910390fd5b600060018560ff16815481106107ae576107ad611956565b5b90600052602060002090600302016040518060600160405290816000820180546107d7906119b4565b80601f0160208091040260200160405190810160405280929190818152602001828054610803906119b4565b80156108505780601f1061082557610100808354040283529160200191610850565b820191906000526020600020905b81548152906001019060200180831161083357829003601f168201915b50505050508152602001600182018054610869906119b4565b80601f0160208091040260200160405190810160405280929190818152602001828054610895906119b4565b80156108e25780601f106108b7576101008083540402835291602001916108e2565b820191906000526020600020905b8154815290600101906020018083116108c557829003601f168201915b505050505081526020016002820160009054906101000a900460ff1660038111156109105761090f611415565b5b600381111561092257610921611415565b5b815250509050806000015181602001518260400151935093509350509193909250565b60008060009054906101000a900473ffffffffffffffffffffffffffffffffffffffff1673ffffffffffffffffffffffffffffffffffffffff163373ffffffffffffffffffffffffffffffffffffffff16146109d6576040517f08c379a00000000000000000000000000000000000000000000000000000000081526004016109cd906117fb565b60405180910390fd5b600073ffffffffffffffffffffffffffffffffffffffff163373ffffffffffffffffffffffffffffffffffffffff1603610a45576040517f08c379a0000000000000000000000000000000000000000000000000000000008152600401610a3c90611867565b60405180910390fd5b6001805490508260ff1610610a8f576040517f08c379a0000000000000000000000000000000000000000000000000000000008152600401610a86906118d3565b60405180910390fd5b600060018360ff1681548110610aa857610aa7611956565b5b9060005260206000209060030201905060038160020160006101000a81548160ff02191690836003811115610ae057610adf611415565b5b02179055506001915050919050565b60008054906101000a900473ffffffffffffffffffffffffffffffffffffffff1681565b6060600073ffffffffffffffffffffffffffffffffffffffff163373ffffffffffffffffffffffffffffffffffffffff1603610b84576040517f08c379a0000000000000000000000000000000000000000000000000000000008152600401610b7b90611867565b60405180910390fd5b6001805480602002602001604051908101604052809291908181526020016000905b82821015610d375783829060005260206000209060030201604051806060016040529081600082018054610bd9906119b4565b80601f0160208091040260200160405190810160405280929190818152602001828054610c05906119b4565b8015610c525780601f10610c2757610100808354040283529160200191610c52565b820191906000526020600020905b815481529060010190602001808311610c3557829003601f168201915b50505050508152602001600182018054610c6b906119b4565b80601f0160208091040260200160405190810160405280929190818152602001828054610c97906119b4565b8015610ce45780601f10610cb957610100808354040283529160200191610ce4565b820191906000526020600020905b815481529060010190602001808311610cc757829003601f168201915b505050505081526020016002820160009054906101000a900460ff166003811115610d1257610d11611415565b5b6003811115610d2457610d23611415565b5b8152505081526020019060010190610ba6565b50505050905090565b60018181548110610d5057600080fd5b9060005260206000209060030201600091509050806000018054610d73906119b4565b80601f0160208091040260200160405190810160405280929190818152602001828054610d9f906119b4565b8015610dec5780601f10610dc157610100808354040283529160200191610dec565b820191906000526020600020905b815481529060010190602001808311610dcf57829003601f168201915b505050505090806001018054610e01906119b4565b80601f0160208091040260200160405190810160405280929190818152602001828054610e2d906119b4565b8015610e7a5780601f10610e4f57610100808354040283529160200191610e7a565b820191906000526020600020905b815481529060010190602001808311610e5d57829003601f168201915b5050505050908060020160009054906101000a900460ff16905083565b60008054906101000a900473ffffffffffffffffffffffffffffffffffffffff1673ffffffffffffffffffffffffffffffffffffffff163373ffffffffffffffffffffffffffffffffffffffff1614610f25576040517f08c379a0000000000000000000000000000000000000000000000000000000008152600401610f1c906117fb565b60405180910390fd5b600073ffffffffffffffffffffffffffffffffffffffff163373ffffffffffffffffffffffffffffffffffffffff1603610f94576040517f08c379a0000000000000000000000000000000000000000000000000000000008152600401610f8b90611867565b60405180910390fd5b6001805490508360ff1610610fde576040517f08c379a0000000000000000000000000000000000000000000000000000000008152600401610fd5906118d3565b60405180910390fd5b600060018460ff1681548110610ff757610ff6611956565b5b90600052602060002090600302019050828160000190816110189190611cbe565b508181600101908161102a9190611cbe565b5060028160020160006101000a81548160ff0219169083600381111561105357611052611415565b5b02179055507f3ff5b2dbb379a3765de2a11e90d91cfaf54b178f2d29590471f1fb57642fd16583600260405161108a929190611d90565b60405180910390a150505050565b5080546110a4906119b4565b6000825580601f106110b657506110d5565b601f0160209004906000526020600020908101906110d4919061110b565b5b50565b604051806060016040528060608152602001606081526020016000600381111561110557611104611415565b5b81525090565b5b8082111561112457600081600090555060010161110c565b5090565b6000604051905090565b600080fd5b600080fd5b600060ff82169050919050565b6111528161113c565b811461115d57600080fd5b50565b60008135905061116f81611149565b92915050565b60006020828403121561118b5761118a611132565b5b600061119984828501611160565b91505092915050565b600080fd5b600080fd5b6000601f19601f8301169050919050565b7f4e487b7100000000000000000000000000000000000000000000000000000000600052604160045260246000fd5b6111f5826111ac565b810181811067ffffffffffffffff82111715611214576112136111bd565b5b80604052505050565b6000611227611128565b905061123382826111ec565b919050565b600067ffffffffffffffff821115611253576112526111bd565b5b61125c826111ac565b9050602081019050919050565b82818337600083830152505050565b600061128b61128684611238565b61121d565b9050828152602081018484840111156112a7576112a66111a7565b5b6112b2848285611269565b509392505050565b600082601f8301126112cf576112ce6111a2565b5b81356112df848260208601611278565b91505092915050565b600080604083850312156112ff576112fe611132565b5b600083013567ffffffffffffffff81111561131d5761131c611137565b5b611329858286016112ba565b925050602083013567ffffffffffffffff81111561134a57611349611137565b5b611356858286016112ba565b9150509250929050565b60008115159050919050565b61137581611360565b82525050565b6000602082019050611390600083018461136c565b92915050565b600081519050919050565b600082825260208201905092915050565b60005b838110156113d05780820151818401526020810190506113b5565b60008484015250505050565b60006113e782611396565b6113f181856113a1565b93506114018185602086016113b2565b61140a816111ac565b840191505092915050565b7f4e487b7100000000000000000000000000000000000000000000000000000000600052602160045260246000fd5b6004811061145557611454611415565b5b50565b600081905061146682611444565b919050565b600061147682611458565b9050919050565b6114868161146b565b82525050565b600060608201905081810360008301526114a681866113dc565b905081810360208301526114ba81856113dc565b90506114c9604083018461147d565b949350505050565b600073ffffffffffffffffffffffffffffffffffffffff82169050919050565b60006114fc826114d1565b9050919050565b61150c816114f1565b82525050565b60006020820190506115276000830184611503565b92915050565b600081519050919050565b600082825260208201905092915050565b6000819050602082019050919050565b600082825260208201905092915050565b600061157582611396565b61157f8185611559565b935061158f8185602086016113b2565b611598816111ac565b840191505092915050565b6115ac8161146b565b82525050565b600060608301600083015184820360008601526115cf828261156a565b915050602083015184820360208601526115e9828261156a565b91505060408301516115fe60408601826115a3565b508091505092915050565b600061161583836115b2565b905092915050565b6000602082019050919050565b60006116358261152d565b61163f8185611538565b93508360208202850161165185611549565b8060005b8581101561168d578484038952815161166e8582611609565b94506116798361161d565b925060208a01995050600181019050611655565b50829750879550505050505092915050565b600060208201905081810360008301526116b9818461162a565b905092915050565b6000819050919050565b6116d4816116c1565b81146116df57600080fd5b50565b6000813590506116f1816116cb565b92915050565b60006020828403121561170d5761170c611132565b5b600061171b848285016116e2565b91505092915050565b60008060006060848603121561173d5761173c611132565b5b600061174b86828701611160565b935050602084013567ffffffffffffffff81111561176c5761176b611137565b5b611778868287016112ba565b925050604084013567ffffffffffffffff81111561179957611798611137565b5b6117a5868287016112ba565b9150509250925092565b7f596f75277265206e6f7420616c6c6f7765640000000000000000000000000000600082015250565b60006117e56012836113a1565b91506117f0826117af565b602082019050919050565b60006020820190508181036000830152611814816117d8565b9050919050565b7f5a65726f2041646472657373206e6f7420616c6c6f7765640000000000000000600082015250565b60006118516018836113a1565b915061185c8261181b565b602082019050919050565b6000602082019050818103600083015261188081611844565b9050919050565b7f496e646578206973206f7574206f6620626f756e640000000000000000000000600082015250565b60006118bd6015836113a1565b91506118c882611887565b602082019050919050565b600060208201905081810360008301526118ec816118b0565b9050919050565b7f4e487b7100000000000000000000000000000000000000000000000000000000600052601160045260246000fd5b600061192d826116c1565b9150611938836116c1565b92508282039050818111156119505761194f6118f3565b5b92915050565b7f4e487b7100000000000000000000000000000000000000000000000000000000600052603260045260246000fd5b7f4e487b7100000000000000000000000000000000000000000000000000000000600052602260045260246000fd5b600060028204905060018216806119cc57607f821691505b6020821081036119df576119de611985565b5b50919050565b6000815490506119f4816119b4565b9050919050565b60008190508160005260206000209050919050565b60006020601f8301049050919050565b600082821b905092915050565b600060088302611a5d7fffffffffffffffffffffffffffffffffffffffffffffffffffffffffffffffff82611a20565b611a678683611a20565b95508019841693508086168417925050509392505050565b6000819050919050565b6000611aa4611a9f611a9a846116c1565b611a7f565b6116c1565b9050919050565b6000819050919050565b611abe83611a89565b611ad2611aca82611aab565b848454611a2d565b825550505050565b600090565b611ae7611ada565b611af2818484611ab5565b505050565b5b81811015611b1657611b0b600082611adf565b600181019050611af8565b5050565b601f821115611b5b57611b2c816119fb565b611b3584611a10565b81016020851015611b44578190505b611b58611b5085611a10565b830182611af7565b50505b505050565b600082821c905092915050565b6000611b7e60001984600802611b60565b1980831691505092915050565b6000611b978383611b6d565b9150826002028217905092915050565b818103611bb5575050611c8d565b611bbe826119e5565b67ffffffffffffffff811115611bd757611bd66111bd565b5b611be182546119b4565b611bec828285611b1a565b6000601f831160018114611c1b5760008415611c09578287015490505b611c138582611b8b565b865550611c86565b601f198416611c29876119fb565b9650611c34866119fb565b60005b82811015611c5c57848901548255600182019150600185019450602081019050611c37565b86831015611c795784890154611c75601f891682611b6d565b8355505b6001600288020188555050505b5050505050505b565b7f4e487b7100000000000000000000000000000000000000000000000000000000600052603160045260246000fd5b611cc782611396565b67ffffffffffffffff811115611ce057611cdf6111bd565b5b611cea82546119b4565b611cf5828285611b1a565b600060209050601f831160018114611d285760008415611d16578287015190505b611d208582611b8b565b865550611d88565b601f198416611d36866119fb565b60005b82811015611d5e57848901518255600182019150602085019450602081019050611d39565b86831015611d7b5784890151611d77601f891682611b6d565b8355505b6001600288020188555050505b505050505050565b60006040820190508181036000830152611daa81856113dc565b9050611db9602083018461147d565b939250505056fea2646970667358221220f2a489f87d8a537a1d0e803bd362fd98ca618cce79fd69dbe1414e9b209d63b664736f6c634300081b0033",
  "linkReferences": {},
  "deployedLinkReferences": {}
}